:100000000C94ED000C9415010C9415010C94150141
:100010000C9415010C9415010C9415010C94150108
:100020000C9415010C9415010C9485100C94F71088
:100030000C9415010C9415010C9415010C941501E8
:100040000C9415010C9415010C9415010C941501D8
:100050000C9415010C9415010C9415010C94BB1C07
:100060000C9415010C9415010C9415010C941501B8
:100070000C9415010C9415010C9415010C941501A8
:100080000C9415010C9415010C9415010C94150198
:100090000C9415010C9415010C9415010C94150188
:1000A0000C9415010C9415010C94150174188C18FE
:1000B0000419F619161A361A3E1AEB19011C041CFB
:1000C000F31BF71BFB1B251C251C251C081C0C1CEB
:1000D000101C161C1A1C251C201C080B00020202F6
:1000E00001000904000001020200000524001001C3
:1000F0000524010101042402060524060001070568
:10010000810310004009040100020A0000000705F5
:1001100002024000000705830240000004030904B6
:10012000537061726B46756E00537061726B4675E9
:100130006E2050726F204D6963726F0012010002D1
:10014000000000404F1B0692000101020301120152
:100150000002EF0201404F1B069200010102030161
:1001600000000000240027002A002D0030000000BD
:100170000000250028002B002E0031000404040498
:10018000040304050202020204030202020206063C
:100190000606060604040202020404040802011012
:1001A00040804010204080408008020401804020B0
:1001B00010020110801020404020000000020009C1
:1001C0000F0000030401000C00000000000000000C
:1001D0000000000000000000402511241FBECFEFEA
:1001E000DAE0DEBFCDBF25E0A2ECB1E001C01D9298
:1001F000AD36B207E1F711E0A0E0B1E0EEE2FEE4D7
:1002000002C005900D92A23CB107D9F710E0CDEEE7
:10021000D0E004C02197FE010E94AB25CC3ED1075F
:10022000C9F70E9485230C9415270C940000CF93E6
:10023000DF931F92CDB7DEB7DC01ED91FC91008C0E
:10024000F18DE02D41E050E0BE016F5F7F4F0995D9
:10025000181619061CF4898190E002C08FEF9FEFF9
:100260000F90DF91CF910895CF93DF931F92CDB779
:10027000DEB76983DC01ED91FC910280F381E02D12
:1002800041E050E0BE016F5F7F4F09950F90DF9115
:10029000CF910895DC01ED91FC91008CF18DE02D62
:1002A0000994CF93DF931F92CDB7DEB76983DC014A
:1002B000ED91FC910280F381E02D41E050E0BE0120
:1002C0006F5F7F4F09950F90DF91CF910895FB01EC
:1002D00041505109460F571FE417F50778F4208164
:1002E00030E0322F22276181260F311D820F931FAC
:1002F0008217930708F401963296EECFE417F507BC
:1003000051F4208130E0322F2227820F931F821771
:10031000930708F401960895CF93DF931F92CDB70A
:10032000DEB7DC01ED91FC910088F189E02D41E020
:1003300050E0BE016F5F7F4F099597FD03C0898133
:1003400090E002C08FEF9FEF0F90DF91CF91089563
:10035000FC01448555854115510551F0FB0124856B
:1003600035852115310521F081E04217530709F049
:1003700080E00895DC011C96ED91FC911D9730976B
:1003800039F08181811106C0808182958170089544
:1003900080E0089581E00895DC01ED91FC91008CEE
:1003A000F18DE02D099591E0892708950F931F9312
:1003B000CF93DF93EC018C010B5F1F4F88810E946C
:1003C000051D1992C017D107C9F7DF91CF911F9171
:1003D0000F910895CF93DF93EC01E881F9810688AE
:1003E000F789E02D0995882339F08C859D85019644
:1003F000DF91CF910C94D601DF91CF9108950F93A7
:100400001F93CF93DF93EC01DC018D918D010E944E
:10041000051DFE01CE010496D8012D918D01219379
:10042000E817F907C9F71C82DF91CF911F910F914F
:100430000895EF92FF920F931F93CF93DF93EC01F8
:10044000E881F9810688F789E02D09958823B9F0BC
:100450008C859D857C012FEFE21AF20A8C010A5FE0
:100460001F4FC0E0D0E0F70181917F010E947E1F05
:10047000C80FD91FE016F106B1F7CE0102C080E027
:1004800090E0DF91CF911F910F91FF90EF90089531
:100490000F931F93CF93DF931F92CDB7DEB78C01DD
:1004A000DC01ED91FC910688F789E02D0995882300
:1004B00091F0D8011C96ED91FC911D9781818823C4
:1004C00051F041E050E0BE016F5F7F4F0E944A2132
:1004D000898190E002C08FEF9FEF0F90DF91CF9165
:1004E0001F910F9108956F927F928F929F92AF927A
:1004F000BF92CF92DF92EF92FF920F931F93CF9311
:10050000DF937C015B01EA01DC01ED91FC9106883F
:10051000F789E02D0995882309F46FC0D7011C964F
:10052000ED91FC911D978181882309F469C06E01CA
:100530000EE1BE016C197D096A0D7B1DD7011C9669
:10054000ED91FC911D97A60181810E944A214C01E9
:10055000F70164847584D30111961C91812F0E9448
:100560007E1F8816990681F5C818D908C30101961F
:100570000E94FF01F701A485B5858C91282F30E0FA
:100580002F70029FF001039FF00D1124E451FC4FE6
:10059000918D94FF05C0982F907611F480688C930C
:1005A000D7011C96ED91FC911D97818181111FC08F
:1005B000808186FF05C010821D961C921E921C979A
:1005C000CE018C199D091EC0B5E01B9FF0011124BE
:1005D000ED54FD4F80819181880D991D9183808319
:1005E00082819381881999099383828304C0C114FD
:1005F000D10409F09ECFCE0105C08FEF9FEF02C05E
:1006000080E090E0DF91CF911F910F91FF90EF90EC
:10061000DF90CF90BF90AF909F908F907F906F9022
:100620000895CF93DF93EC018A89882369F09A01BA
:10063000AB016E857F850E94FC1E2E853F85280FAD
:10064000391F3F872E8702C080E090E0DF91CF9175
:100650000895CF93DF93EC018C859D85892B19F448
:1006600080E090E024C0EA89EE23D1F381E08B8B17
:100670008E859F8525E0E29FF0011124ED54FD4F0A
:10068000938382838C859D859093140280931302BB
:1006900085E00E94FC138091290290912A02892B07
:1006A000F9F2CE010E960E94581B81E090E0DF9196
:1006B000CF910895CF93DF93DC011C96ED91FC91CF
:1006C0001D973097B1F0EC011582148212861186C5
:1006D0001D861C8689890E94051D88890E94051D2A
:1006E0008A890E94051D2E9686E0FE0111928A9548
:1006F000E9F7DF91CF9108950F931F93CF93DF9385
:10070000EC018B018C859D85892B41F460E070E0C4
:1007100080E090E00E94E51A9D878C87EC85FD853E
:10072000309751F0102701271027158304832E9648
:10073000D287C18781E001C080E0DF91CF911F9116
:100740000F910895EF92FF920F931F93CF93DF9332
:10075000C82FE0903E02F12C84E1E81AF1082091C4
:100760003D0230E0322F2227E20EF31E48E050E037
:1007700067E472E0C7018C0F911D0E946701C131CF
:1007800031F0C0915B02C695C695CC7301C0C8E03C
:10079000D0E0AE016FE472E00E9467018C01CE15DB
:1007A000DF0508F04CC0A7014C1B5D0BBE016E5D60
:1007B0007F4F809112020E94431FEC01219760E05D
:1007C00081E10E94D61B8AE38EBD0DB407FEFDCFEA
:1007D000A80160E070E06C177D07C8F41EBC0DB482
:1007E00007FEFDCF2EB530E0322F22271EBC0DB400
:1007F00007FEFDCF8EB5280F311D420F531F421744
:10080000530710F44F5F5F4F6E5F7F4FE4CF8A0155
:100810006C177D0781F41EBC0DB407FEFDCF8EB5AD
:1008200090E0982F88278A01080F191F08171907C9
:1008300010F40F5F1F4F61E081E10E94D61B01158C
:10084000110519F0902F812F02C08FEF9FEFDF91DC
:10085000CF911F910F91FF90EF90089544E150E0E8
:100860006BE372E080E090E00E946701009721F066
:1008700098278927982708958FEF9FEF0895EF9283
:10088000FF921F93CF93DF938091110281FF11C0DC
:1008900020910F0230E04DE252E060E070E0809184
:1008A00012020E94FC1E809111028D7F8093110222
:1008B00015C08091290290912A020E94581E8093AF
:1008C0001202882309F44CC02091290230912A0297
:1008D0004DE252E060E070E00E94FC1EE0911202E6
:1008E00085E0E89FF0011124ED54FD4FC081D181D6
:1008F0002197E280F380EC0EFD1ECE010E94F01DD8
:10090000182F882321F060E0CE010E94D81DBE017F
:1009100084E00E946A1DB70186E00E946A1D48E0DB
:100920006FE180E80E94251D8CE10E94481D6CE16A
:1009300080E00E94991D81FF05C048E06FE180EAD8
:100940000E94251D112321F0612FCE010E94D81D88
:10095000809112020E94051D1092120281E001C0D6
:1009600080E0DF91CF911F91FF90EF900895CF929B
:10097000DF92EF92FF920F931F93CF93DF938091BB
:100980001002811159C089E30E94481D69E380E08B
:100990000E94991D882309F44DC06091BC03709199
:1009A000BD038B010A5F1F4F011528E0120710F0ED
:1009B0000F5F174080E00E946A1D60E08AE30E949A
:1009C000991D90E09093BD038093BC0360E08AE39F
:1009D0000E94991D2091BC033091BD03382B3093A8
:1009E000BD032093BC0360E08AE30E94991DC82FD9
:1009F00060E08AE30E94991DD82F60E08AE30E949C
:100A0000991DF82E40E46EE180E80E94251DF7FE56
:100A10000EC010939202009391028C2F90E09D2BB8
:100A2000049790939402809393028FEF03C00E94E7
:100A3000931F80E080931002C0911002CC2309F430
:100A400020C181E0809311028C2F0E947E1F909321
:100A50002A0280932902892B09F407C142E650E05B
:100A60006DE272E08C2F0E944A21C0913902D09130
:100A70003A02C830D10509F044C080911002809339
:100A800012028091290290912A020E9790932A02D5
:100A9000809329022091AF023091B00280914702E9
:100AA00090914802822793272091A7023091A802B3
:100AB00082239323892BC1F42091B1023091B20299
:100AC0008091490290914A02822793272091A9029E
:100AD0003091AA0282239323892B31F463E372E0DD
:100AE00087E492E00E94CD2081E00E94FC13809177
:100AF000290290912A02892B09F4B7C00E94D91FBC
:100B0000B2C0C83036E0D30709F0AFC080912902E7
:100B100090912A0210922A02109229028A9708F4D0
:100B20009CC08091410290914202811541E094075E
:100B300029F08115924009F474C08FC020915302AE
:100B4000309154028091AF029091B002281739077A
:100B500009F083C020915502309156028091B10274
:100B60009091B2022817390709F077C063E472E068
:100B700089E492E00E94CD2080E092E090934202CE
:100B80008093410286E0E3E4F2E0ADE4B2E001905C
:100B90000D928A95E1F786E0E6ECF4E0A3E4B2E09A
:100BA00001900D928A95E1F786E0E6ECF4E0A3E38C
:100BB000B2E001900D928A95E1F786E0EDE4F2E073
:100BC000ADE2B2E001900D928A95E1F78091490281
:100BD00090914A02909354028093530280914B0269
:100BE00090914C0290935602809355028091AF02EF
:100BF0009091B00290934A02809349028091B10291
:100C00009091B20290934C0280934B02D0933A029F
:100C1000C09339028AE290E090932A0280932902DD
:100C20001CC020915302309154028091AF029091E8
:100C3000B0022817390789F42091550230915602E5
:100C40008091B1029091B2022817390731F463E420
:100C500072E089E492E00E94CD2080912902909177
:100C60002A02892B11F00E943F04809110028823F0
:100C700041F08091110280FF04C00E94931F1092E6
:100C800010020E94AF1C6B017C018091CC049091FA
:100C9000CD04A091CE04B091CF04A7019601281BEA
:100CA000390B4A0B5B0BDA01C90180959095A09531
:100CB000B0958827B7FD83959927AA27BB27C82F0A
:100CC0000CEE13E010931B0200931A02CC2311F0D8
:100CD00082E012C0D8015C96ED91FC915D9785850C
:100CE0009685A785B089A7019601281B390B4A0B69
:100CF0005B0B57FD0DC083E00E94FC13809129021D
:100D000090912A02892B21F00E94D91F0E943F0452
:100D1000025E1F4F34E004361307A1F6CC2331F1F5
:100D2000D701C60186509F4FAF4FBF4F8093CC0471
:100D30009093CD04A093CE04B093CF04CEEBD3E038
:100D4000D0931402C093130285E00E94FC1380919B
:100D5000290290912A02892B21F089859A850E9487
:100D6000581B2B9643E0CA3ED40751F7DF91CF9131
:100D70001F910F91FF90EF90DF90CF900895DF9239
:100D8000EF92FF920F931F93CF93DF9300D000D089
:100D9000CDB7DEB77C014B835C8369837A830E9485
:100DA000B704F70181894B815C8169817A8188234D
:100DB00029F10E944A218C01F701D1888D2D0E94D2
:100DC0007E1F0817190731F48D2D0E94051DF701AC
:100DD000118A12C085E0D89EF0011124ED54FD4F18
:100DE00080819181800F911F918380838281938183
:100DF000801B910B93838283C80102C080E090E046
:100E00000F900F900F900F90DF91CF911F910F9146
:100E1000FF90EF90DF900895CF93DF93EC010E9455
:100E2000B7048989DF91CF910C947E1FCF93DF9314
:100E3000EC010E94B70489890E94051D8889898B6D
:100E4000188ADF91CF910C947E1FCF92DF92EF92A0
:100E5000FF920F931F93CF93DF9300D000D0CDB7B5
:100E6000DEB78C016B017A010E94B704F601828122
:100E70009381A481B581892B8A2B8B2B41F1E114BD
:100E8000F10429F1828190E0982F88272381822B19
:100E90009827892798279A838983248130E0322FE5
:100EA00022274581242B3227232732273C832B837B
:100EB000D8011C96ED91FC911D977E2D6F2D3097DA
:100EC00029F1778366839183808333832283D801DA
:100ED0001C968D919C911D97892BA9F052968C910F
:100EE000811111C086E096E00E94581EF801828BA5
:100EF0002AE230E03787268721E090E0811101C0A7
:100F000020E0822F15C080E090E012C0CE01019653
:100F10000E94E51AD8011D969C938E931C9700970A
:100F200091F39801225F3F4FFC0132872187CFCF99
:100F30000F900F900F900F90DF91CF911F910F9115
:100F4000FF90EF90DF90CF9008952F923F924F92B5
:100F50005F926F927F928F929F92AF92BF92CF9249
:100F6000DF92EF92FF920F931F93CF93DF93CDB752
:100F7000DEB765970FB6F894DEBF0FBECDBF7C011C
:100F80006B013A01FB01DB018D91882331F08E3238
:100F9000D9F380538A30C0F334C020E030E080E0E1
:100FA00090E05AE041914423F9F0843091054CF5EA
:100FB0004E3269F42F3F310509F01CF5D301A80F1B
:100FC000B91F12962C93019620E030E0EBCF529F90
:100FD000B001539F700D1124242F440F330B205365
:100FE0003109260F371FDECF2F3F310509F04CF4B2
:100FF0008430910534F4F301E80FF91F228381E076
:1010000021C0F70142815381648175818091290556
:1010100090912A05A0912B05B0912C0548175907EE
:101020006A077B0709F401C20E94AF1C8701085FB1
:101030001F4F6F7077277C5FC8010E947C0381304F
:1010400019F080E090E0F3C184EA91E09A8389830B
:10105000F70182819381A481B5818B839C83AD83C9
:10106000BE8345E350E0BE016F5F7F4FC8010E9421
:101070002507892B19F4C12CD12CD2C10E94AF1C99
:10108000F7017783668342E050E0B7016A5F7F4FE4
:10109000C8010E94110381E090E09A83898342E0B5
:1010A00050E0BE016F5F7F4FC8010E94110380E0D6
:1010B00091E09A83898342E050E0BE016F5F7F4FE9
:1010C000C8010E9411031A82198242E050E0BE0159
:1010D0006F5F7F4FC8010E94110342E050E0BE01E4
:1010E0006F5F7F4FC8010E94110342E050E0BE01D4
:1010F0006F5F7F4FC8010E9411035601F501808187
:10110000882311F1F6015F018191811115C045011C
:101110008C189D081814190494F48D8641E050E051
:10112000BE01635F7F4FC8010E941103A401B60195
:10113000C8010E94110303C08E3229F7E8CF650170
:10114000FFEFCF1ADF0ADACF1D8641E050E0BE0183
:10115000635F7F4FC8010E941103C12CDD24D3942B
:10116000DA82C98242E050E0BE016F5F7F4FC80162
:101170000E941103DA82C98242E050E0BE016F5F33
:101180007F4FC8010E941103C8010E942903892BC7
:1011900009F471CF83E0A82EB12CF2E06F0E711C20
:1011A0000E94AF1C1B012C01C8010E9416071816D3
:1011B0001906ACF00E94AF1CDC01CB018219930927
:1011C000A409B50989389341A105B10508F016C1F4
:1011D00062E370E080E090E00E94751CE5CFF701CB
:1011E0002280338044805580B801CE0101960E9450
:1011F00044138B819C81AD81BE81281639064A0635
:101200005B0609F0FEC0C8010E943413C59709F0BF
:10121000F8C0C8010E940C070C970CF4F5C04CE014
:1012200050E0BE016F5F7F4FC8010E94BF068B81F7
:101230009C819827892798279A8B898BF70146816B
:10124000578129813A814217530711F497FD06C04F
:10125000C8010E94CE132CEF3FEFD8C08F70927060
:10126000892B31F0C8010E94CE132BEF3FEFCEC087
:10127000CF80D884DC24CD24DC24C114D10431F403
:10128000C8010E94CE132AEF3FEFC0C0812C912CE1
:101290008D819E819827892798278816990640F581
:1012A00041E050E0BE01635F7F4FC8010E94BF066E
:1012B0008D85811113C08D858111F2CFC8010E94E7
:1012C0001701C8010E941701C8010E941701C80137
:1012D0000E941701FFEF8F1A9F0ADACF8D859FEFCB
:1012E000980F9D87882339F3C8010E941701F6CF14
:1012F000812C912C41E050E0BE016D5E7F4FC80112
:101300000E94BF068B89982F907C61F4882371F02E
:101310008B899FEF980F9B8B882341F0C8010E9417
:101320001701F6CFC8010E9417011B8A8B89811112
:10133000E1CF42E050E0BE01615F7F4FC8010E94F3
:10134000BF0642E050E0BE01635F7F4FC8010E94CC
:10135000BF06C8010E941701C8010E941701C801F9
:101360000E941701C8010E94170142E050E0BE012F
:101370006F5E7F4FC8010E94BF068F8598898115D7
:101380009140F1F42D853E853227232732272130E5
:101390003105B1F489899A898115944031F0C801E9
:1013A0000E94CE1327EF3FEF31C044E050E0B3017D
:1013B000C8012C8B3D8B0E94BF062C893D8926C01D
:1013C000412C512C89899A89982789279827481672
:1013D000590638F4C8010E9417018FEF481A580ABD
:1013E000F1CFEFEF8E1A9E0A8C149D0409F082CF84
:1013F000C8010E94CE1326EF3FEF08C02FEF3FEF4A
:1014000005C02EEF3FEF02C02DEF3FEF6901F1E085
:10141000AF1AB10829F02FEFC216D20609F4C0CED8
:10142000C8010E945A03C60102C08EEF9FEF659665
:101430000FB6F894DEBF0FBECDBFDF91CF911F91E5
:101440000F91FF90EF90DF90CF90BF90AF909F9063
:101450008F907F906F905F904F903F902F90089566
:10146000CF92DF92EF92FF920F931F93CF93DF9370
:10147000CDB7DEB7A8970FB6F894DEBF0FBECDBFCD
:101480007C016A0104EA11E01A8309831C861B8629
:1014900088EE93E0A0E0B0E08D879E87AF87B88BA1
:1014A0008BE191E09A8789871E8A1D8AFE017796D3
:1014B00086E0DF011D928A95E9F71E8F0D8F1F8E42
:1014C00018A219A21AA28091230590912405A09137
:1014D0002505B09126058DA39EA3AFA3B8A78B8346
:1014E0009C83AD83BE8318861F82AE01435E5F4F2F
:1014F000CE0101960E94A50781309105B1F4D70174
:10150000ED91FC910088F189E02D1CA30BA38F8D38
:1015100098A1A9A1BAA18DA39EA3AFA3B8A7A60124
:10152000BE016D5D7F4FC7010995A8960FB6F8946F
:10153000DEBF0FBECDBFDF91CF911F910F91FF9006
:10154000EF90DF90CF900895CF92DF92EF92FF92CD
:101550000F931F93CF93DF93CDB7DEB7A8970FB646
:10156000F894DEBF0FBECDBF7C016A0104EA11E032
:101570001A8309831C861B8688EE93E0A0E0B0E006
:101580008D879E87AF87B88B8BE191E09A8789879B
:101590001E8A1D8AFE01779686E0DF011D928A95DC
:1015A000E9F71E8F0D8F1F8E18A219A21AA2809123
:1015B000230590912405A0912505B09126058B83E4
:1015C0009C83AD83BE8318861F82AE01435E5F4F4E
:1015D000CE0101960E94A50781309105B1F4D70193
:1015E000ED91FC910484F585E02D1CA30BA38F8D58
:1015F00098A1A9A1BAA18DA39EA3AFA3B8A7A60144
:10160000BE016D5D7F4FC7010995A8960FB6F8948E
:10161000DEBF0FBECDBFDF91CF911F910F91FF9025
:10162000EF90DF90CF900895FC012481358180E018
:10163000843099F0E82FF0E091E0980FEE0FFF1F53
:10164000EC59FB4F40815181452B29F480936C0468
:101650003183208304C0892FEBCF80936C040C94DA
:10166000B7048F929F92AF92BF92CF92DF92EF9288
:10167000FF920F931F93CF938C015B017A016A0154
:101680004C0187E0880E911C0E94B70401151105DA
:1016900009F452C0F8018081807609F04DC0F40150
:1016A000C1E08191811102C0C15004C0CF5FC5303B
:1016B000C1F7C4E0F801EC0FF11D868181110DC066
:1016C00080E092E00E94581EF801EC0FF11D868325
:1016D0008823D1F2F80114861386A7014C195D09FD
:1016E0004A0D5B1DF801638574859601EC0FF11DB1
:1016F00086810E94FC1EC81AD90AF8012385348508
:10170000820F931F948783871C141D042CF4C4300C
:1017100009F4BACFCF5FD4CF0E94AF1CDC01CB015C
:101720000A96A11DB11DF80185879687A787B08B02
:10173000C7018C199D0902C08FEF9FEFCF911F91B8
:101740000F91FF90EF90DF90CF90BF90AF909F9060
:101750008F9008959F92AF92BF92CF92DF92EF92B7
:10176000FF920F931F93CF93DF938C017B016A014C
:10177000C2ECD1E0A12CB12C8EE1982E288124FF5F
:1017800018C030E02F70929EF001939EF00D11244E
:10179000E451FC4F24813581F8018481958128171B
:1017A000390739F4A601B701CE010E94310BA80E0A
:1017B000B91E6196F2E0C630DF0701F7C501DF917F
:1017C000CF911F910F91FF90EF90DF90CF90BF903E
:1017D000AF909F900895FC01848595850C94310B02
:1017E000CF93DF931F92CDB7DEB7698341E050E01E
:1017F000BE016F5F7F4FFC01848595850E94310B90
:101800000F90DF91CF910895CF93DF93EC010E9469
:10181000B704EC85FD85309739F0808186FF06C0DE
:1018200081E09181911103C080E001C081E0DF91EE
:10183000CF910895CF93DF93EC018C859D85009720
:1018400081F0FC012081222361F001960E94D601E3
:10185000EC85FD85908196FF02C0108202C09062E7
:1018600090831D861C86DF91CF910C94B704EF9274
:10187000FF920F931F93CF93DF938C017B01EA01BB
:10188000DC01ED91FC910288F389E02D0995F701C7
:10189000828190E0982F88272381822B982789279F
:1018A0009827248130E0322F22274581242B3227AC
:1018B000232732277C2F6D2F4091EA035091EB03B1
:1018C0004F5F5F4F4115FDE75F0710F040E050E1CB
:1018D000D42FC52FECEEF3E0A0E0A43059F0B18D89
:1018E000BB2329F0E480F580EC16FD0649F3AF5FD9
:1018F0007E96F3CF5093EB034093EA0310926C046F
:1019000040E0C0E0D0E0AEE14430C1F0A49FF0017F
:101910001124E451FC4F518D511104C040936C04CB
:10192000EF010EC0573031F4209729F0B28D5A8D57
:101930005B1708F0FE014F5FEF01E6CF40936C04A8
:10194000209719F480E090E040C042E0498F409138
:1019500015024C87409116024D87409117024E8721
:10196000409118024F8740E052E05B8B4A8B5D8BC1
:101970004C8B41E050E0598B488B1B8E4A8F43E0E3
:10198000488F1E8A40E14F8B4091EA035091EB0350
:101990005427452754275D834C837F836E83998327
:1019A00088833B832A83898D8F7061F20E94B704FC
:1019B000898D8F708330B9F78C8D9D8DD8011D96E0
:1019C0009C938E931C9781E090E0DF91CF911F91C3
:1019D0000F91FF90EF900895EF92FF920F931F9356
:1019E000CF93DF93A0911A02B0911B025C96CD9128
:1019F000DC915D9750911902209749F556FF5EC022
:101A0000E2ECF1E080E090E0208121111AC061E178
:101A1000689F9001699F300D1124E901CE53DE4F7C
:101A2000806188832D533E4F80E1F90111928A95A0
:101A3000E9F7209709F442C05D96DC93CE935C975A
:101A400006C00196719684309105F1F637C051FFBA
:101A500007C08091290290912A02892B09F042C087
:101A6000888187FF0EC08F778883809119028260FA
:101A700080931902E0911A02F0911B02818D8F7EF2
:101A8000818F8091190284FF6AC0CE0106960E9460
:101A9000D6018981882309F465C0E0911A02F0918A
:101AA0001B02848195819F838E83888180648883D3
:101AB000E0911A02F0911B02158E148EE12CF12C8C
:101AC000B70180912B0290912C020E943621F09256
:101AD0002A02E0922902DF91CF911F910F91FF908E
:101AE000EF9008958881807609F0BACF8E010F5F5C
:101AF0001F4FF12CF801808181111EC080912902B5
:101B000090912A020E94581EF80180838823A1F038
:101B10000091290210912A0220912B0230912C026F
:101B20002D5232404091100260E070E00E94A21FEE
:101B3000F4E0FF1295CF0BC0F3940F5F1F4F25E029
:101B4000F212D8CF809111028E7F80931102E09122
:101B50001A02F0911B02818D8061818F81CF87FFF6
:101B600003C093CF1882A4CF80FF04C0CE01069695
:101B70000E94FF01809119028C70E9F18E81882307
:101B8000D1F19F8191110FC0EB84FC84E114F10429
:101B900009F496CF35E0839FF0011124ED54FD4FF9
:101BA000F382E28206C00E947E1F7C01892B09F429
:101BB00087CF80912B0290912C028D52924080937E
:101BC0000F02F701E80FF11DCF010E94581E80930C
:101BD0001202882309F474CF60910F0270E087012C
:101BE00020E030E04E810E94A21F809111028260AD
:101BF0008093110265CF888185FF60CF8E8181112E
:101C00000BC01882E0911A02F0911B02158E148EFF
:101C100080E18093190252CFE0911A02F0911B02E9
:101C2000818D8061818F4ACF4091090250910A02D3
:101C3000209107023091080242175307B4F49091A3
:101C4000E8009570E1F39091E80092FD19C080934F
:101C5000F1008091090290910A0201968F739927F1
:101C6000892B19F48EEF8093E800809109029091FE
:101C70000A02019690930A028093090281E0089576
:101C800080E00895CF92DF92EF92FF920F931F931F
:101C9000CF93DF931F92CDB7DEB7182F062FE42E18
:101CA000862F880F8E5F99830E94140E83E00E9416
:101CB000140EF12EC12E9981D92E8C2D8F198017DB
:101CC00098F4F601E7FE02C0849101C080810E9471
:101CD000140E182F80E00E94140E8123FFEFCF1AFC
:101CE000DF0A8111EACF01C081E00F90DF91CF912F
:101CF0001F910F91FF90EF90DF90CF900895DF92AA
:101D0000EF92FF920F931F93CF93DF93D82E8A0108
:101D10007B01E40EF51EEB01CE15DF0571F0D7FE59
:101D200003C0FE01849101C088810E94140E219697
:101D30008111F2CF8FEF9FEF01C0C801DF91CF91EA
:101D40001F910F91FF90EF90DF900895615030F058
:101D50002091F100FC0120830196F8CF289884E6B9
:101D60008093A5020895CF92DF92EF92FF920F9396
:101D70001F93CF93DF936C017A018B01C0E0D0E019
:101D8000CE15DF0589F0D8016D918D01D601ED9159
:101D9000FC910190F081E02DC6010995892B11F489
:101DA0007E0102C02196ECCFC701DF91CF911F9138
:101DB0000F91FF90EF90DF90CF900895CF93DF9336
:101DC0001F92CDB7DEB76983DC01ED91FC910280F3
:101DD000F381E02D41E050E0BE016F5F7F4F099538
:101DE0000F90DF91CF91089583E08093E900809177
:101DF000F200882319F08AE38093E80008958F9217
:101E00009F92AF92BF92CF92DF92EF92FF920F9389
:101E10001F93CF93DF935C016B018A0180910B01CB
:101E2000882309F45EC08091A602882309F459C072
:101E300080910D0280FF05C08091E0008260809358
:101E4000E000E8018AEFF82E93E0E92E2FE3822EDE
:101E50003AE3932E209709F43DC08FB7F894E092AF
:101E6000E9009091E80095FF06C09091F200282DBE
:101E7000291B922F01C090E08FBF91110AC0FA94E4
:101E8000FF2079F161E070E080E090E00E94751C35
:101E9000E1CF292F30E0C217D3070CF49C2F8FB766
:101EA000F894E092E9002091E80025FF11C0292F65
:101EB00030E0C21BD30BF601915020F041914093CA
:101EC000F100FACFC20ED31E9091E80095FF13C027
:101ED0008FBFC0CF5D9884E680930B021016110669
:101EE00044F081E090E0F5019383828380E090E00C
:101EF00005C0C80103C09092E800EACFDF91CF91FE
:101F00001F910F91FF90EF90DF90CF90BF90AF9017
:101F10009F908F9008950E94DE260F931F93CF937A
:101F2000DF931F92CDB7DEB782E0898342E450E0B1
:101F30006AED70E080E80E947F0E0E947123DC0150
:101F400012960D911C9113970115110569F0D80196
:101F5000ED91FC910280F381E02DBE016F5F7F4F18
:101F6000C801099597FF07C089810F90DF91CF9134
:101F70001F910F910895F80100851185E5CF611536
:101F8000710579F0FB0101900020E9F73197AF016D
:101F9000461B570BDC01ED91FC910280F381E02D93
:101FA000099480E090E008954F925F926F927F9243
:101FB000EF92FF920F931F93CF93DF93CDB7DEB7CE
:101FC000A1970FB6F894DEBF0FBECDBF7C01FA011A
:101FD000CB0119A2223008F42AE08E010F5D1F4FB9
:101FE000422E512C612C712CBF01A30192010E9441
:101FF000F326F901CA01015011096A3014F4605D39
:1020000001C0695CD8016C93232B242B252B61F72D
:10201000B801C7010E94BF0FA1960FB6F894DEBFAA
:102020000FBECDBFDF91CF911F910F91FF90EF9029
:102030007F906F905F904F9008958F929F92AF9294
:10204000BF92CF92DF92EF92FF920F931F93CF93A5
:10205000DF937C01EB016C0182E0C80ED11C4701CB
:10206000E5E08E0E911C00E010E0F60141916F0159
:1020700050E060E070E02AE0CE010E94D40F5C01E5
:10208000E881F9810190F081E02D6EE2CE010995A1
:102090008A0D9B1D080F191FC814D90431F7F701C9
:1020A000458150E060E070E02AE0CE010E94D40F4C
:1020B000800F911FDF91CF911F910F91FF90EF90B3
:1020C000DF90CF90BF90AF909F908F900895CF9367
:1020D000DF931F92CDB7DEB7FC018485958597FD10
:1020E00005C02FEF3FEF358724870BC0CE01019647
:1020F0000E944723019719F4898190E002C08FEF75
:102100009FEF0F90DF91CF9108951F920F920FB61E
:102110000F9211248F939F938091E1009091E100A1
:10212000937F9093E10083FF0FC01092E90091E04C
:102130009093EB001092EC0092E39093ED001092DC
:10214000A60298E09093F00082FF20C093E0909365
:10215000E9009091F200992319F09AE39093E80036
:1021600090910B02992339F090910B02915090932A
:102170000B02992389F19091A502992339F090914E
:10218000A50291509093A502992341F184FF10C0BC
:102190008091E2008E7E81608093E2008091E10078
:1021A0008F7E8093E10080910D028E7E806111C050
:1021B00080FF16C08091E2008E7E80618093E200F5
:1021C0008091E1008E7E8093E10080910D028E7EF1
:1021D000816080930D0204C05D9ACDCF289AD6CF3E
:1021E0009F918F910F900FBE0F901F9018951F9287
:1021F0000F920FB60F921124CF92DF92EF92FF92BF
:102200000F931F932F933F934F935F936F937F93FE
:102210008F939F93AF93BF93EF93FF93CF93DF93EE
:10222000CDB7DEB76C97DEBFCDBF1092E9008091CD
:10223000E80083FFFAC168E0CE0145960E94A60E31
:1022400082EF8093E8008D8987FF05C09091E800B8
:1022500090FFFCCF03C09EEF9093E800982F9076FC
:1022600009F0C6C09E892F89188D91110CC0803845
:1022700029F480910E028093F10002C01092F100C7
:102280001092F10047C1422F50E0512B913051F490
:10229000811140C14130510509F03CC180910E02CD
:1022A0008D7F0BC0933061F4811134C141305105F1
:1022B00009F030C180910E02826080930E022AC123
:1022C000953041F48091E80080FFFCCF2068209396
:1022D000E30020C1963009F05FC0EB8CFC8C1092BB
:1022E000E90010920A0210920902123091F5109240
:1022F0000802109207020E948D0F99E0BE016F5FE5
:102300007F4FDB01E92F1D92EA95E9F799831A8344
:1023100091E09E8390EA98879AEF9987209109022D
:1023200030910A02275F3F4F3C832B838D831092AD
:10233000E90010920A0210920902F0920802E0925B
:10234000070249E050E080E00E947F0E0E948D0F5E
:10235000E1C0F0920802E09207020E947123DC01C2
:102360001296ED90FC901397E114F10409F4C0C0AB
:10237000D701ED91FC910480F581E02DBE016B5EEB
:102380007F4FC7010995009719F00CF0C3C0C6C074
:10239000F701E084F184E8CF973009F4BFC09830AA
:1023A00021F481E08093F100B5C0993009F0B2C00A
:1023B000837009F0B3C0E2E4F1E081E021E036E3AC
:1023C0009081992361F08093E9002093EB00919133
:1023D0009093EC003093ED008F5F873089F78EE7A4
:1023E0008093EA001092EA008F898093A60292C03F
:1023F0008B8D9C8D1092E90010920A0210920902B6
:102400009093080280930702898D811156C08E89AE
:102410009D89913A59F4813209F080C047E050E03B
:1024200064E071E080E00E947F0E74C0913209F098
:1024300075C0833289F4888D90E0982F88272F8982
:10244000822BA0E0B0E08093000190930101A09363
:102450000201B09303015EC0803269F48091E8000C
:1024600082FFFCCF67E084E091E00E94A60E8BEF34
:102470008093E80006C0823209F04CC08F898093B7
:102480000B0180910C02882319F0EEEFFAE002C0F4
:10249000E0E0F8E08091040190910501A09106012F
:1024A000B0910701803B9440A105B10509F088C0B7
:1024B00080910B0180FFA0C083C00E947123DC01CA
:1024C00012960D911C9113970115110539F1D80140
:1024D000ED91FC910190F081E02DBE016B5E7F4F8C
:1024E000C8010995811116C0F80100851185ECCF4E
:1024F0001130C1F0133091F48F89882309F455C04D
:102500008230E9F440E862E189E291E00E94420E03
:10251000882321F08EEF8093E80087C081E28093CA
:10252000EB0083C08B8D9C8D089711F410930602ED
:1025300080910602811136C06CE371E038C08130B1
:1025400029F440E868E080E291E0E0CF833031F7A1
:102550000E947123DC011296ED90FC9013978E017E
:102560000F5F1F4F6801E114F10479F0D701ED917D
:10257000FC910680F781E02DB801C7010995080F8D
:10258000111DF701E084F184EECFD8011C92F60111
:1025900001900020E9F73197BF016C197D0940E0F7
:1025A000C601B4CF6EE471E002C06CE171E0611568
:1025B000710509F4B3CFFB01449150E080E833CFBB
:1025C0000FB6F894A89580916000886180936000B0
:1025D000109260000FBEA895EE3F2AE0F20739F096
:1025E0008091FE0A9091FF0A9183808393CF10928D
:1025F000FF0A1092FE0A8ECFEE3F8AE0F80731F014
:10260000808191819093FF0A8093FE0A87E797E784
:10261000918380839BE088E10FB6F894A89580931E
:1026200060000FBE9093600075CF6C960FB6F89463
:10263000DEBF0FBECDBFDF91CF91FF91EF91BF9174
:10264000AF919F918F917F916F915F914F913F914A
:102650002F911F910F91FF90EF90DF90CF900F90EF
:102660000FBE0F901F901895DC011C96ED91FC9108
:102670001D97309731F08681978198278927982771
:10268000089580E090E00895CF93DF93FC01EB0183
:10269000AC85BD85109791F012969C911297139678
:1026A0008C9113973C9111962C9144EA51E05183FF
:1026B0004083328323839483858308C084EA91E036
:1026C000918380831282138214821582CF01DF915D
:1026D000CF910895EF92FF920F931F93CF93DF93C3
:1026E000E0911302F0911402C185D285209709F47C
:1026F0004EC0E0901902E1FE2FC08A8181112CC0EA
:1027000080914F0290915002978386838091470277
:1027100090914802918380838091490290914A026E
:102720009383828380915302909154029827892742
:10273000982708970E94581EF82E8A83882361F0F4
:102740000E947E1F8C012AE230E04091100260E07E
:1027500070E08F2D0E94A21FE3FE19C08D81882397
:10276000B1F08C81809312028AE280930F0268811B
:1027700079816A52710980912B0290912C02DF912C
:10278000CF911F910F91FF90EF900C943621DF9124
:10279000CF911F910F91FF90EF900895CF93DF930A
:1027A000EC010E94B70489890E94051D198ADF91F6
:1027B000CF9108950F931F93CF93DF931F92CDB7BF
:1027C000DEB78C010E94B704F8018189882361F08B
:1027D00041E050E0BE016F5F7F4F0E944A210197A8
:1027E00019F4898190E002C08FEF9FEF0F90DF9185
:1027F000CF911F910F910895EF92FF921F93CF9366
:10280000DF93C0911A02D0911B02843009F4CDC12C
:1028100023E632E030932C0220932B0230932602E1
:1028200020932502833059F4898D8F70833009F00D
:10283000C0C688899989892B09F0BBC67EC08230C1
:1028400009F07FC0809118028F5F80931802811178
:1028500013C0809117028F5F8093170281110CC003
:10286000809116028F5F80931602811105C08091BE
:1028700015028F5F8093150210922A02109229028E
:102880001092280210922702898D982F9D7F9530F3
:1028900041F48A8D8F5F8A8F883709F08AC6198E36
:1028A00088C6882309F485C628893989232B09F429
:1028B00040C09A8D2FEF290F2A8F91117AC69B8DD8
:1028C000983031F02FEF280F223048F4953039F44A
:1028D000198E80E8809319020E94EC0C23C5953074
:1028E00038F423E0092E01C0220F0A94EAF701C050
:1028F00020E32A8F9F5F9B8F8F708330A1F048F475
:10290000813009F43BC3823009F053C610925C0257
:1029100038C3863009F4A2C4883009F49FC48430D7
:1029200009F047C69BC484E0809319020E94EC0C16
:102930002BC58F70833009F03CC688E08093190264
:10294000E6C4853019F5E0911302F09114028481F8
:102950009581892B09F42DC610921B0210921A0240
:1029600087E592E090932C0280932B0290932602AD
:1029700080932502109228021092270210922A02B8
:102980001092290288E0809319020DC180913B02C8
:10299000853409F00EC6C0913D02D0E0DC2FCC2773
:1029A00080913E02C80FD11D8091290290912A0288
:1029B0008C179D0708F4FDC5D0932A02C093290205
:1029C000809141028F7309F0F4C5109142021111F8
:1029D000F0C5E090AF02F090B002E114F10431F4E0
:1029E0008091B1029091B202892B21F12091440291
:1029F00080914B0290914C02213161F48F3F2FEF77
:102A0000920741F420914D0230914E022F3F3F4FEB
:102A100009F452C08E159F0509F0CBC520914D02D7
:102A200030914E028091B1029091B202281739077D
:102A300009F0BFC50E942E04019609F0BAC5809125
:102A40004402863009F415C18131B1F1813009F0B9
:102A5000B0C580914F02883009F0ABC510924F028B
:102A60008091510290915202873F7FEF970710F0BB
:102A7000099601C00896909352028093510280916A
:102A800047029091480290934C0280934B028091B0
:102A9000490290914A0290934E0280934D02F09227
:102AA0004802E09247028091B1029091B202909365
:102AB0004A028093490281C56C97D0932A02C09341
:102AC000290287E592E090932C0280932B0280915B
:102AD000550290915602892B99F420915102309120
:102AE000520240914F025091500260914702709102
:102AF0004802A0914902B0914A02EEEBF3E00CC00B
:102B000081E10E94A203019609F053C5E6CF8481BA
:102B10009581009731F43B9683E0EA3EF807B8F3DD
:102B200024C028173907B9F786819781009719F0D3
:102B30004817590781F780819181009729F4C28154
:102B4000D381CD2B49F416C08F3F1FEF910721F49D
:102B5000C281D381219671F068177907E1F68281ED
:102B60009381A817B907B9F605C0F0931402E09352
:102B700013021FC5F0931402E093130210921B027C
:102B800010921A0282E08093190287E592E09093F6
:102B90002C0280932B0290932602809325021092A0
:102BA0002802109227020E946A13809127029091B6
:102BB0002802009709F4FDC49C01245E3F4F309326
:102BC0002A022093290230933D0220933E02E09195
:102BD0001302F091140220852093430221E12093F7
:102BE0004402089698278927982790935402809347
:102BF000530210925602109255028481958190934F
:102C0000500280934F028681978190935202809365
:102C100051028091AF029091B0029093480280934C
:102C200047028091B1029091B20290934A02809340
:102C300049028081918190934C0280934B02828162
:102C4000938190934E0280934D0283E692E090939D
:102C50002C0280932B0281E10E94A2038095909523
:102C6000009711F48FEF9FEF9093560280935502D7
:102C70007DC486E00E94A203019609F09AC42091C7
:102C800051023091520280914F0290915002609116
:102C9000470270914802E0914902F0914A02CCEE5D
:102CA000D3E0498D4423A9F0AC81BD812A173B07AD
:102CB00081F4AE81BF818A179B0759F4A881B9813D
:102CC0006A177B0731F4AA81BB81EA17FB0709F475
:102CD0006FC16E9644E0C436D40719F780915C0248
:102CE0008F738230E1F4309324022093230280E03A
:102CF000843099F0E82FF0E0EE0FFF1FEC59FB4F06
:102D0000408151818F5F2417350791F710926C0431
:102D100080E0C0E0D0E09EE17CC080936C048091B4
:102D20005C0282FD46C484E180935C0288E290E00C
:102D300090932A028093290280E580935B02309170
:102D4000560280915A02809356022091550280913A
:102D50005902809355022093590290915402809118
:102D600058028093540290935802809153028093AA
:102D70006C044091570240935302809357023F5F87
:102D800030935A0231110DC02F5F20935902211147
:102D900008C09F5F90935802911103C08F5F80938A
:102DA000570280914F029091500290932402809399
:102DB000230220915102309152023093500220930D
:102DC0004F0290935202809351028091470290915A
:102DD000480290934C0280934B028091490290915B
:102DE0004A0290934E0280934D028091AF029091DF
:102DF000B00290934802809347028091B102909173
:102E0000B20290934A028093490294C3473099F0EA
:102E10008F5F8430F1F0282F30E0929FF001939F74
:102E2000F00D1124E451FC4F418D4111EFCF8093FF
:102E30006C04EF0110C0209721F0528D4A8D451788
:102E400038F7929FE001939FD00D1124C451DC4FBD
:102E5000DFCF80936C04209709F4ABC3D0931B029F
:102E6000C0931A0283E08A8F888F1E8A84E08F8B3A
:102E70001B8E80915102909152029D838C83809190
:102E80004F02909150029F838E83809147029091D0
:102E90004802998388838091490290914A029B83DA
:102EA0008A8381E0898F809115028C878091160238
:102EB0008D87809117028E87809118028F8781E01D
:102EC00090E0998B888B809156028B878091550278
:102ED0008A8780915402898780915302888781E094
:102EE00090E00E94282580915B02982F907F913579
:102EF00008F444C082958F7090E00597880F991F61
:102F0000880F991F20912202E12FF0E0E817F907BE
:102F10008CF5E35DFD4F26A9211105C010936C04CB
:102F2000109222022BC0213011F41F5FEDCF22300E
:102F3000E1F437A93430C9F410936C0420932202D1
:102F400080AD90E0982F882721AD822B90932402AA
:102F500080932302813062E0960710F080E092E0D7
:102F60009B8B8A8B9D8B8C8B09C037A9332311F0E7
:102F7000130FCACF10936C042093220280E1809338
:102F80005C0280915C02826080935C0282E08093AC
:102F9000630294E09093640280936502109266024B
:102FA0008CE290E090932A028093290280E670C21E
:102FB000D0931B02C0931A021092190230915C0246
:102FC000132F147032FF03C0198E80E20AC22091C1
:102FD0005B0222952F70220F220F20936C048091A8
:102FE000290290912A024497821B910990932A0208
:102FF000809329024F70423021F4232F2F73223106
:10300000C9F0892B19F4832F8370A1F0909153029A
:103010008885981333C290915402898598132EC2E3
:10302000909155028A85981329C2909156028B85FA
:10303000981324C234FF49C06889798961157105E4
:1030400009F443C0CE010C960E94F224309157023D
:1030500080911E02381339C02091580280911F02BE
:10306000281333C0909159028091200298132DC0EB
:1030700080915A0240912102841327C03C872D87FA
:103080009E878F878B8D811119C09E89888D2A8D8F
:10309000821B292F269526952695821B980F9E8B9D
:1030A00087FD81952F89322F36953695231B820F08
:1030B0008F8B969596959695890F888F81E0809352
:1030C0001902888D8A8F198A188A298DE22FEF704C
:1030D0008E2F90E0FC013197E830F10508F069C2CD
:1030E000EA5AFF4F0C94AB258091190280FF61C210
:1030F00083E0898F80E480931902198A188A80916D
:10310000290290912A02009709F4FDC022E420933D
:1031100019020E942825F7C08091190280FF6DC016
:1031200080915C028F73823109F067C080915B02ED
:10313000982F907F913508F444C082958F7090E06D
:103140000597880F991F880F991F20912202E12F60
:10315000F0E0E817F9078CF5E35DFD4F26A9211192
:1031600005C010936C04109222022BC0213011F480
:103170001F5FEDCF2230E1F437A93430C9F410934A
:103180006C042093220280AD90E0982F882721AD17
:10319000822B9093240280932302813072E0970760
:1031A00010F080E092E09B8B8A8B9D8B8C8B09C00A
:1031B00037A9332311F0130FCACF10936C04209357
:1031C000220283E0898F8091530288878091540284
:1031D0008987809155028A87809156028B8781E08A
:1031E00090E00E94282582E480931902198A188AA7
:1031F00010922A021092290286C080E2809319025E
:103200000E94EC0C198E8BCD80915C0280FF28C04F
:1032100024FD26C088899989892B09F0CAC180912B
:10322000290290912A0201960E9428258091190274
:10323000982F9061909319022091290230912A02CF
:10324000232B19F08261809319020E94EC0C81E01B
:1032500090E0998B888B88E0898F1B8E81E10FC16C
:1032600085FF1DC08091610290E0982F88273091E2
:103270006202832B40912B0250912C02480F591F60
:1032800050932C0240932B024091290250912A0224
:10329000BA01681B790B70932A026093290240914E
:1032A000290250912A024115510551F024FD08C010
:1032B00090911902926090931902CA010E942825E8
:1032C00080915D0290E0982F882720915E02820F06
:1032D000911D90932402809323022C893D89281705
:1032E000390710F0892B21F4309324022093230214
:1032F00080912302909124029B8B8A8B80911902EA
:10330000837009F456C110922802109227020E947D
:10331000EC0C8091190285FF07C0109228021092D0
:103320002702198E84E1ABC084FF0AC010922802E4
:103330001092270281E090E0998B888B84E08CCFFB
:10334000209127023091280221153105E1F080FFFC
:1033500002C0198A188A88899989009781F48A8914
:103360009B898217930720F4909328028093270269
:103370008091270290912802998B888B04C09093AA
:103380002802809327021B8E8091250290912602AD
:1033900090932C0280932B02809127029091280217
:1033A000892B59F088899989009739F088969093EC
:1033B0002A028093290288E10BC08091190281FFC3
:1033C000F8C088E290E090932A028093290280E17D
:1033D00080935C025CC08091190280FFEAC0198E64
:1033E00080E1809319020E94EC0CE3C080912902D5
:1033F00090912A02009711F00E94282590915C027A
:103400008091190290FF0BC080FF06C087E0898F72
:103410001A8E198A188A19C086E0898F16C080FF13
:103420001EC085E0898F198A188AC3C0809129023D
:1034300090912A02009711F00E94282580915C0249
:1034400080FF0DC087E0898F1A8E81E090E00E9496
:10345000282580E1809319020E94EC0C0FC0809116
:10346000290290912A02892B49F4A3C08091190264
:1034700080FF9FC087E0898F1A8E9BC080E1809378
:103480005C0288E290E090932A028093290280E512
:1034900080935B02888580935702898580935802C8
:1034A0008A85809359028B8580935A028C858093FC
:1034B00053028D85809354028E85809355028F85AB
:1034C0008093560286E0809344028C819D81909384
:1034D000500280934F028E819F819093520280937D
:1034E00051028091AF029091B00290934802809374
:1034F00047028091B1029091B20290934A02809368
:1035000049028881998190934C0280934B028A8171
:103510009B8190934E0280934D02898D84FF05C05C
:1035200010925E0210925D0205C082E080935D02FF
:1035300010925E0280E48093430280912902909170
:103540002A0290933D0280933E02109262021092F2
:1035500061021092600210925F0286E00E94A20354
:10356000809590959093600280935F0285E48093AC
:103570003B0210923C021092420210924102809152
:103580001C0290911D02019690931D0280931C02D3
:1035900090933F028093400210924602109245029F
:1035A0000E942E0480959095909346028093450248
:1035B00004C010922A021092290210921902DF917F
:1035C000CF911F91FF90EF9008950F931F93CF938A
:1035D000DF93DC012091EA033091EB032F5F3F4F33
:1035E00021158DE7380710F020E030E1522F432FEE
:1035F000EEEBF3E080E0843041F0C481D5818F5F51
:103600003B96C417D507B9F7E9CF3093EB03209366
:10361000EA0390E08BE09430D1F0292F30E041E0D4
:10362000490F829FF001839FF00D1124E254FC4F5B
:10363000EF01249604811581012B39F490936C04D9
:10364000309741F480E090E02EC0942FE4CF909327
:103650006C04F8CF8091EA039091EB0398278927B7
:1036600098279983888377836683109729F410823B
:103670001182128213820BC08D919C9111979183BC
:10368000808312968D919C911397938382838BE014
:10369000829FD001839FB00D1124A254BC4F80E4BF
:1036A00018968C93CF01DF91CF911F910F910895C0
:1036B000CF93DF93EC010E94D91F20912902309112
:1036C0002A02909111022A32310521F4109212023D
:1036D0009D7F03C01D821C82926090931102DF9136
:1036E000CF910C943F04FC018485958597FD0BC018
:1036F0009FB7F89482E08093E9008091F2009FBF29
:1037000090E0019608959FB7F89482E08093E900D5
:103710008091F2009FBF90E008953FB7F8948091A8
:10372000A1029091A202A091A302B091A40226B599
:10373000A89B05C02F3F19F00196A11DB11D3FBFE9
:10374000BA2FA92F982F8827820F911DA11DB11D77
:10375000BC01CD0142E0660F771F881F991F4A9573
:10376000D1F708950F931F93CF93DF931F92CDB797
:10377000DEB78C01FC018485958597FF0EC0CE01D4
:1037800001960E944723019719F4298130E002C075
:103790002FEF3FEFF80135872487F8018485958561
:1037A0000F90DF91CF911F910F910895362F90E0E8
:1037B000FC01E654FE4F4491FC01E556FE4F249176
:1037C000FC01E458FE4F8491882309F451C044233E
:1037D000E1F150E0FA013197EF30F105B0F5E25A2E
:1037E000FF4F0C94AB25909180009F7707C090917C
:1037F00080009F7D03C090918000977F9093800010
:1038000024C094B59F7702C094B59F7D94BD1DC020
:10381000909190009F7707C0909190009F7D03C08A
:1038200090919000977F909390000FC09091C0006E
:103830009F7703C09091C0009F7D9093C00005C00A
:103840009091C200977F9093C200E82FF0E0EE0FB6
:10385000FF1FE259FE4FA591B4918FB7F894EC91F8
:10386000311103C020952E2301C02E2B2C938FBF26
:103870000895CF93DF9390E0FC01E556FE4F24912D
:10388000FC01E458FE4F8491882361F190E0880F99
:10389000991FFC01E05AFE4FC591D491FC01E259F9
:1038A000FE4FA591B491611109C09FB7F89488812A
:1038B000209582238883EC912E230BC0623061F423
:1038C0009FB7F8943881822F809583238883EC9169
:1038D0002E2B2C939FBF06C08FB7F894E8812E2B18
:1038E00028838FBFDF91CF9108958F929F92AF92DF
:1038F000BF92CF92DF92EF92FF926B017C010E9408
:103900008D1B4B015C01C114D104E104F104F1F001
:103910000E948D1BDC01CB0188199909AA09BB09FA
:10392000883E9340A105B10570F321E0C21AD10889
:10393000E108F10888EE880E83E0981EA11CB11CF6
:10394000C114D104E104F10419F7DDCFFF90EF9029
:10395000DF90CF90BF90AF909F908F9008952FB73A
:10396000F89460919D0270919E0280919F029091C7
:10397000A0022FBF08951F920F920FB60F9211242D
:103980002F933F938F939F93AF93BF9380919D020B
:1039900090919E02A0919F02B091A00230919C0252
:1039A00023E0230F2D3720F40196A11DB11D05C082
:1039B00026E8230F0296A11DB11D20939C0280933F
:1039C0009D0290939E02A0939F02B093A0028091CB
:1039D000A1029091A202A091A302B091A40201962B
:1039E000A11DB11D8093A1029093A202A093A302F6
:1039F000B093A402BF91AF919F918F913F912F916E
:103A00000F900FBE0F901F9018958823E9F0A3EB3D
:103A1000B2E025E014969C91149798130DC095E0A0
:103A2000899FF0011124ED54FD4F848114968C93ED
:103A30001382128214820895992331F0299FD001B4
:103A40001124AD54BD4FE6CF08950F931F93CF932C
:103A5000DF931F92CDB7DEB7182F062F60E081E10C
:103A600049830E94D61B802F8F71812B8EBD498187
:103A70000DB407FEFDCF4EBD0DB407FEFDCF61E0D6
:103A800081E10F90DF91CF911F910F910C94D61B84
:103A90001F93CF93DF93182F1076C12FD0E0209182
:103AA0000C0130E0C217D30789F043E06FE180EAF0
:103AB0000E94251DAE0185E0559547958A95E1F751
:103AC0006FE180E80E94251D10930C01DF91CF91DA
:103AD0001F9108951F93CF93DF9300D0CDB7DEB72A
:103AE000182F69837A830E94481D4981612F80E4E1
:103AF0000E94251D61E0610F7A81472F80E40F90BD
:103B00000F90DF91CF911F910C94251D1F93CF93A0
:103B1000DF931F92CDB7DEB7182F69830E94481D2F
:103B20004981612F80E40F90DF91CF911F910C9418
:103B3000251DCF93DF93C82FD62F60E081E10E942F
:103B4000D61B8D2F8F71C82BCEBD0DB407FEFDCFB8
:103B50001EBC0DB407FEFDCFD7FD08C061E081E1BA
:103B60000E94D61B8EB5DF91CF9108951EBC0DB477
:103B700007FEFDCFF3CFCF93DF93EB01682F84EDEA
:103B80000E94861DBE0186ED0E946A1DC7E3D0E03B
:103B90008AEE0E94481D6AEE80E00E94991D80FF17
:103BA00004C0CE010197F1F7F3CFDF91CF910895D3
:103BB000CF93C62FBC0182E00E946A1D60E081E1C4
:103BC0000E94D61B8AE78EBD0DB407FEFDCFCEBD89
:103BD0000DB407FEFDCF61E081E1CF910C94D61BBF
:103BE000BC0180E00E946A1D60E081E10E94D61B5A
:103BF0008AE38EBD0DB407FEFDCF1EBC0DB407FEDB
:103C0000FDCF61E081E10E94D61B8EB50895CF9271
:103C1000DF92EF92FF920F931F93CF93DF936C018C
:103C20008B014130510579F4CB010E94F01D682FC2
:103C3000C601DF91CF911F910F91FF90EF90DF9020
:103C4000CF900C94D81DEA01C60FD71F7E0181E0EA
:103C5000E81AF10880E10E946A1DB60184E10E9421
:103C60006A1D0115184038F4E11488E0F80618F0D0
:103C70007E0188E0F81AB70182E10E946A1D40E1E6
:103C80006FE180EA0E94251D40E26FE180E80E941A
:103C9000251D6FE180E00E94991D85FDFACFDF911F
:103CA000CF911F910F91FF90EF90DF90CF900895EB
:103CB000CF92DF92EF92FF920F931F93CF93DF93F8
:103CC0008C016091B3027091B4026150784EC12CA6
:103CD00098E1D92EE3EBF2E080E0C0E0D0E045E0EF
:103CE0009481992349F0499F900111242D543D4F0F
:103CF000D9012D913C9101C09B01E080F1802E19EA
:103D00003F090280F381E02D2E1B3F0B2017310766
:103D100039F4B5E08B9FE0011124CD54DD4F49C04B
:103D20000217130748F42C153D0530F4489FE001B5
:103D30001124CD54DD4F6901911107C02097C9F5B9
:103D4000C3EBD2E085E0D82E1EC0499FF0011124BC
:103D5000ED54FD4F892FC4CFEA80FB802881398143
:103D6000E20EF31ED89EE0011124CD54DD4F688190
:103D70007981E616F70639F04A815B81C7010E9416
:103D8000071EF982E8828C818111E6CF2091B3026F
:103D90003091B40288819981281B390B8A819B81DB
:103DA000281B390B2150384E2017310710F480E0C2
:103DB0001AC0E8EBF2E091E022813381232B29F055
:103DC00035969F5F9533C1F7F2CF4A815B81288199
:103DD0003981240F351F31832083138302838C8123
:103DE00084839C83892FDF91CF911F910F91FF9046
:103DF000EF90DF90CF900895CF92DF92EF92FF92F5
:103E00000F931F93CF93DF937B018A01690125E014
:103E1000829FC0011124EC01CD54DD4F688179816E
:103E20006E0D7F1D82E00E946A1D0A80DB81C02D1D
:103E3000CE19DF09CC16DD0608F4E60160E081E169
:103E40000E94D61B8AE78EBD0DB407FEFDCFC801C8
:103E50008C0F9D1F0817190741F0F80121918F0160
:103E60002EBD0DB407FEFDCFF5CF61E081E10E94CC
:103E7000D61BCE01DF91CF911F910F91FF90EF9054
:103E8000DF90CF900895EF92FF920F931F93CF93FF
:103E9000DF938B017A018F3FD1F025E0829FE00113
:103EA0001124CD54DD4F02C0C1E9D2E0888199814F
:103EB000B801680F791F80E00E946A1D8A819B818A
:103EC000801B910BE816F90690F4C70110C0809191
:103ED000910290919202860F971F811528E0920718
:103EE00018F3BC016F5F7740C1E9D2E0E4CFDF9106
:103EF000CF911F910F91FF90EF900895882381F04B
:103F00008F3F29F48091930290919402089595E057
:103F1000899FF0011124ED54FD4F82819381089512
:103F200080E090E008956091BC037091BD0361153D
:103F3000710519F06150710902C06FEF77E08CE0F4
:103F40000C946A1D0F931F93DB01E42FA80190E0EE
:103F5000EF3F09F165E0E69FF0011124ED54FD4FBC
:103F600002C0E1E9F2E00190F081E02D2E0F3F1F49
:103F700065E0689FF001699FF00D1124ED54FD4F3D
:103F800080819181B9018A0F9B1F0E94071E1F919A
:103F90000F910C94931FE0919102F0919202E20F25
:103FA000F31FE11568E0F607E0F29F012F5F37404D
:103FB000DFCF80914B0290914C028F3F2FEF920701
:103FC00059F420914D0230914E022F3F3F4F21F482
:103FD00086E0E8E6F1E05AC02091AF023091B002ED
:103FE000282739274091A7025091A802242335237E
:103FF000232B91F460914D0270914E022091B102F9
:104000003091B202262737274091A9025091AA0287
:1040100024233523232B89F08091AB029091AC02AD
:1040200090939902809398028091AD029091AE0294
:1040300090939B0280939A0208C090939902809378
:10404000980270939B0260939A022091980230919B
:10405000990240919A0250919B0280E09BE001C03E
:104060008F5F883071F1989FF0011124E359FB4F65
:10407000608171812617370799F76281738146172E
:10408000570771F78093C504349686E0ADE2B2E03D
:1040900001900D928A95E1F786E0E6ECF4E0A3E367
:1040A000B2E001900D928A95E1F788E090E090935C
:1040B0003A02809339028091290290912A020E9649
:1040C00067C08093C50446E050E06FEF70E08DE27A
:1040D00092E00E94EC2686E0EDE4F2E0DF01282F7A
:1040E0001D922A95E9F7E6ECF4E0A3E3B2E0982FFD
:1040F00001900D929A95E1F7E6ECF4E0A3E4B2E0CA
:10410000982F01900D929A95E1F7209198023091A5
:104110009902309354022093530220919A023091D5
:104120009B0230935602209355022091AF023091AA
:10413000B00230934A02209349022091B10230919B
:10414000B20230934C0220934B0220E031E03093D6
:1041500042022093410230933C0220933B0228E02C
:1041600030E030933E0220933D0280933F0284E092
:104170008093400288E096E090933A02809339025F
:1041800083E692E090932C0280932B028AE290E0E7
:1041900090932A02809329020895EF92FF920F9341
:1041A0001F93CF93DF939C01FB011092C50490E015
:1041B0008BE0983031F1899F70011124E701C359D8
:1041C000DB4F6881798161157105C9F04A815B8196
:1041D00041155105A1F0D9010D911C9111970617B8
:1041E000170769F412966D917C9113976417750700
:1041F00031F49093C504D701AF58BB4F2AC09F5FDD
:10420000D8CF90E08BE0983091F0899FE0011124A5
:10421000C359DB4F48815981452B39F44A815B8171
:10422000452B19F49093C5040AC09F5FECCF109200
:104230009702109296021092C504CDE6D4E0D901FF
:104240004D915D916D917C91DE014D935D936D93E8
:104250007D9386E001900D928A95E1F71A86DF91B1
:10426000CF911F910F91FF90EF9008959C01AB01AA
:1042700070932802609327021616170654F4809153
:104280002502909126022817390719F0B9010C94DC
:10429000E32608950F931F93CF93DF93EB0160E024
:1042A00070E00E94431F8C0160E081E10E94D61BF8
:1042B0008AE38EBD0DB407FEFDCFCE01800F911FA6
:1042C000C817D90739F01EBC0DB407FEFDCF2EB5B7
:1042D0002993F6CF61E081E10E94D61BC801DF91EE
:1042E000CF911F910F9108950F931F93CF93DF9359
:1042F000CDB7DEB7C254D1090FB6F894DEBF0FBEFA
:10430000CDBF8C01FB0182819381A481B58123966D
:104310008CAF9DAFAEAFBFAF239721E023962FAFF9
:10432000239723964CAD5DAD6EAD7FAD23974BAB20
:104330005CAB6DAB7EAB89AF9AAFABAFBCAF8DA7BB
:104340009EA7AFA7B8AB28AB4DA55EA56FA578A972
:104350004FA358A769A77AA72EAB4BA95CA96DA953
:104360007EA949A35AA36BA37CA38B8F9C8FAD8F8F
:10437000BE8F2AA74FA158A569A57AA54D8B5E8B44
:104380006F8B788F2CA349A15AA16BA17CA14F8779
:10439000588B698B7A8B89879A87AB87BC870E94F9
:1043A000AF1CDC01CB0186509F4FAF4FBF4F8093B6
:1043B000CC049093CD04A093CE04B093CF0489E0B5
:1043C00091E0E3EBF2E0DF019C011D9221503040CF
:1043D000E1F781E098E09093B4028093B30261E04A
:1043E00081E10E94391C61E081E10E94D61B61E0FD
:1043F00080E10E94391C61E08FE00E94391C60E07E
:104400008EE00E94391C61E081E10E94391C60E06D
:1044100080E10E94D61B60E08FE00E94D61B80E501
:104420008CBD8DB581608DBD4FEF60E08FEF0E9438
:10443000251D62E370E080E090E00E94751C109200
:10444000BD031092BC0360E070E088E00E946A1D2A
:1044500060E070E08CE00E946A1D6FEF77E08AE018
:104460000E946A1D61EB88E30E94861D6FE370E382
:1044700088E20E946A1D69EF77EF80E30E946A1D5F
:104480006DE070E080EC0E946A1D42E362EC80E81F
:104490000E94251D62E17CE086EC0E946A1D62E1BB
:1044A00084EC0E94861D6CED75E08AEC0E946A1D0A
:1044B000D8016C9184EE0E94861DF801618185EE21
:1044C0000E94861DD80112966C9182EE0E94861D74
:1044D000F801638183EE0E94861DD80114966C91C9
:1044E00080EE0E94861DF801658181EE0E94861D86
:1044F00060E071E080E10E94BB1D8FE10E94481DD9
:1045000040EC6BE180E80E94251D44E06FE180E80B
:104510000E94251D66E774E084E10E94BB1DD8015E
:104520008C918093C60411968C9111978093C70447
:1045300012968C9112978093C80413968C911397BE
:104540008093C90414968C9114978093CA0415968D
:104550008C918093CB0480E0E82FF0E0EE0FFF1FFA
:10456000EC59FB4F118210828F5F8430A9F780E0F5
:104570009EE1989FF0011124E451FC4F118E8F5F52
:104580008430B9F780E094E09093EB038093EA03E2
:1045900080E09BE0989FF0011124E254FC4F1582CB
:1045A00014828F5F8430B1F780936C041092C5043D
:1045B0009BE08091C504883068F4989FF001112435
:1045C000E359FB4F10821182128213828F5F809316
:1045D000C504EFCF7D894E896F8951E05A8B8F8555
:1045E0009889A989BA898B839C83AD83BE838B8587
:1045F00090E0982F88272C85822B98278927982749
:10460000298530E0322F2227EA852E2B32272327D7
:1046100032273093B0022093AF029093B20280937E
:10462000B102842F90E0972B9427892798279093A5
:10463000AC028093AB02862F90E091609093AE0223
:104640008093AD028FEF9FEF9093A8028093A70213
:104650008FEF90E09093AA028093A9025E838B81F2
:104660009C81AD81BE818093230590932405A09306
:104670002505B0932605CE5BDF4F0FB6F894DEBF5D
:104680000FBECDBFDF91CF911F910F910895FC0117
:104690008091A602811103C08FEF9FEF08959FB70D
:1046A000F89482E08093E9002091F20030E0121645
:1046B000130614F421E030E02115310559F0289853
:1046C00084E68093A5028091F10080838091F200BE
:1046D000882319F09FBFC90108958BE68093E800F5
:1046E000F9CF8091370581110DC082E080933305A9
:1046F00084E080933405109236051092350581E0F0
:104700008093370583E395E00895CF93DF93CDB78A
:10471000DEB764970FB6F894DEBF0FBECDBF7894B6
:1047200084B5826084BD84B5816084BD85B58260B6
:1047300085BD85B5816085BD80916E008160809367
:104740006E001092810080918100826080938100D0
:1047500080918100816080938100809180008160E0
:10476000809380008091910082608093910080917D
:10477000910081608093910080919000816080938E
:1047800090008091C10084608093C1008091C1003D
:1047900082608093C1008091C10081608093C100DC
:1047A0008091C30081608093C3008091C0008260CB
:1047B0008093C0008091C20081608093C20080918C
:1047C0007A00846080937A0080917A00826080937E
:1047D0007A0080917A00816080937A0080917A00DB
:1047E000806880937A001092A60210920E021092B6
:1047F0000D028091D70081608093D70080EA80937A
:10480000D80089B5806189BD89B5826089BD09B448
:1048100000FEFDCF61E070E080E090E00E94751C3A
:104820008091D8008F7C80618093D8008091E000D7
:10483000807F8093E0008091E1008E7E8093E10094
:104840008DE08093E200559A209AEEEFFFE7859184
:1048500094918B3F9C4D19F481E080930C028FEF73
:104860009FEF9093DE048093DD0486E0EBE3F1E0BC
:10487000DE011F9601900D928A95E1F784EA91E09E
:104880009A8389838CEA8B8380E18C838DE08D838E
:1048900085E18E83BE016F5F7F4FCE010F960E9430
:1048A00074218DE295E00E94140B8EE1982E90E029
:1048B000A92E90E0B92E28EE422E23E0522E612C34
:1048C000712C3CE4C32E31E0D32E60E081E10E94E4
:1048D000D61B60ED77E080E090E00E94751C61E0FF
:1048E00081E10E94D61B60ED77E080E090E00E94BD
:1048F000751C0E94B7044091310550913205E2ECDD
:10490000F1E08181882339F1608164FF1DC0262F89
:1049100030E02F70929EC001939E900D1124DC0117
:10492000A451BC4F14968D919C91159784179507AF
:1049300059F41C821B824D825E826F827886DA82F5
:10494000C982FE87ED8716C066FF05C08681978104
:104950008417950771F3719682E0E630F80789F6BF
:104960001C821B824D825E826F827886DA82C982C7
:104970001E861D86CE0101960E94040C882359F1E3
:10498000CE0101960E9419028C01892BA1F0C80169
:104990000E94B1257C01A801BC01CE0101960E94B4
:1049A0007302AC01B70181ED94E00E94FF0EC701D4
:1049B0000E944626E5CF6CEA71E0CE0101960E9486
:1049C000BF0F6EEB71E0CE0101960E94BF0FCE01CA
:1049D00001960E941A0CA114B10409F476CF0E942A
:1049E000000073CFFC012381260F20932102A72F03
:1049F000BB2792819A0F90932002318130931F023E
:104A0000408140931E02E92FF0E0EA17FB0748F4CB
:104A100081E0830F80931F02811103C04F5F409399
:104A20001E0230E077272617370788F49F5F9093A0
:104A3000200291110CC080911F028F5F80931F0292
:104A4000811105C080911E028F5F80931E02089520
:104A5000CF93DF93C0911A02D0911B02BC01CE010B
:104A600008960E94F224EEE1F2E08081888781813D
:104A7000898782818A8783818B87DF91CF9108958F
:104A8000EFE3F5E084EA91E0918380831282138260
:104A900014821582E1EDF4E01382128248EE53E0B5
:104AA00060E070E0448355836683778322E731E0DA
:104AB000318320832FEF3FEF35872487E5E4F5E04E
:104AC000918380831282138214821582EBE4F5E0D5
:104AD000918380831282138214821582E1E5F5E0CE
:104AE000918380831282138214821582E1E2F5E0C1
:104AF000918380831282138214821582E7E5F5E0A8
:104B0000918380831282138214821582E7E2F5E09A
:104B1000918380831282138214821582EDE5F5E081
:104B2000918380831282138214821582E3E6F5E07A
:104B3000918380831282138214821582EDE2F5E064
:104B40001382128282E991E09183808383E098EE60
:104B5000958384830895EE0FFF1F0590F491E02D57
:104B60000994CF93DF938230910510F482E090E0B6
:104B7000E0916B05F0916C0520E030E0C0E0D0E002
:104B8000309711F14081518148175907C0F04817FB
:104B9000590761F482819381209719F09B838A835E
:104BA0002BC090936C0580936B0526C021153105B1
:104BB00019F04217530718F49A01BE01DF01EF0103
:104BC0000280F381E02DDCCF2115310509F1281B8E
:104BD000390B2430310590F412968D919C911397E6
:104BE0006115710521F0FB019383828304C09093CA
:104BF0006C0580936B05FD01329644C0FD01E20F08
:104C0000F31F81939193225031092D933C933AC025
:104C10002091690530916A05232B41F420910F0101
:104C20003091100130936A052093690520910D01A0
:104C300030910E012115310541F42DB73EB7409159
:104C4000110150911201241B350BE0916905F0917F
:104C50006A05E217F307A0F42E1B3F0B281739074C
:104C600078F0AC014E5F5F4F2417350748F04E0FC8
:104C70005F1F50936A05409369058193919302C029
:104C8000E0E0F0E0CF01DF91CF9108950F931F9303
:104C9000CF93DF93009709F48CC0FC013297138205
:104CA000128200916B0510916C050115110581F4BC
:104CB00020813181820F931F2091690530916A050F
:104CC0002817390779F5F0936A05E093690571C0F3
:104CD000D80140E050E0AE17BF0750F412962D9176
:104CE0003C911397AD012115310509F1D901F3CF9D
:104CF0009D01DA013383228360817181860F971FC2
:104D00008217930769F4EC0128813981260F371F38
:104D10002E5F3F4F318320838A819B8193838283DF
:104D2000452B29F4F0936C05E0936B0542C0139674
:104D3000FC93EE931297ED01499159919E01240F36
:104D4000351FE217F30771F480819181840F951F5D
:104D5000029611969C938E938281938113969C93D5
:104D60008E931297E0E0F0E0D80112968D919C911D
:104D70001397009719F0F8018C01F6CF8D919C9153
:104D800098012E5F3F4F820F931F2091690530914C
:104D90006A052817390769F4309729F410926C05D1
:104DA00010926B0502C01382128210936A05009361
:104DB0006905DF91CF911F910F91089581E090E0F7
:104DC000F8940C941527FB01DC0102C001900D92B0
:104DD00041505040D8F70895DC0101C06D93415017
:104DE0005040E0F70895A1E21A2EAA1BBB1BFD015B
:104DF0000DC0AA1FBB1FEE1FFF1FA217B307E407BA
:104E0000F50720F0A21BB30BE40BF50B661F771F11
:104E1000881F991F1A9469F76095709580959095F1
:0E4E20009B01AC01BD01CF010895F894FFCFB6
:104E2E00FFFFFFFF00E1000000000000FF00006D2B
:104E3E000580000100000000000000340111030C89
:104E4E00071701DA13CE137C035A032507300A29FC
:104E5E00031607BF064A014413341300010203046C
:104E6E000500C1808100000000000000F00BEB0B7C
:104E7E0019028C014802EA01370CA40A73021A0CBB
:104E8E00BA01040CA801CC01FFFFFFFFFFFF0000D9
:104E9E000000DE0EFF0E731B6710B21BF40E000037
:104EAE0000008B0FB30E8B0F8B0F8B0F8B0F000031
:104EBE0000005101AA0B140B000000008B0FB30E63
:104ECE00000000001D10000000008B0F44415441F3
:104EDE002066726F6D2053657276657221000D0A21
:024EEE000000C2
:1070000055C000006EC000006CC000006AC00000E7
:1070100068C0000066C0000064C0000062C00000DC
:1070200060C000005EC00000FCC400005AC0000048
:1070300058C0000056C0000054C0000052C00000FC
:1070400050C000005DC000004CC000004AC00000FD
:1070500048C0000046C0000044C0000042C000001C
:1070600040C000003EC000003CC000003AC000002C
:1070700038C0000036C0000034C0000032C000003C
:1070800030C000002EC000002CC000002AC000004C
:1070900028C0000026C0000024C0000022C000005C
:1070A00020C000001EC000001CC0000011241FBE34
:1070B000CFEFDAE0DEBFCDBF11E0A0E0B1E0E6E463
:1070C000FFE702C005900D92A43BB107D9F711E08C
:1070D000A4EBB1E001C01D92AD3CB107E1F74FD385
:1070E00030C78ECFF89410926F001092810081E02B
:1070F00085BF15BE47985D9A289A0C9400000895A4
:107100001F920F920FB60F9211242F938F939F937C
:10711000EF93FF9310928500109284008091B40148
:107120009091B501009741F001979093B50180933C
:10713000B401892B09F45D9A8091B6019091B70151
:10714000009741F001979093B7018093B601892B86
:1071500009F4289A8091BA019091BB01019690930D
:10716000BB018093BA01E0E0F0E0859194918F5FDC
:107170009F4F49F08091B8019091B9010196909389
:10718000B9018093B801FF91EF919F918F912F9159
:107190000F900FBE0F901F90189584E08093E90028
:1071A0000DC08091E8008B778093E80003C08EB318
:1071B000882351F08091E80082FFF9CF8091E800A8
:1071C00085FFEFCF8091F1000895982F83E08093A1
:1071D000E9008091E80085FD0DC08091E8008E7780
:1071E0008093E80003C08EB3882369F08091E800A3
:1071F00080FFF9CF9093F1005D9884E690E0909342
:10720000B5018093B40108954F925F926F927F927F
:107210008F929F92AF92BF92CF92DF92EF92FF92A6
:107220000F931F93CF93DF9384E08093E9008091C5
:10723000E80082FF57C2289884E690E09093B70157
:107240008093B601AADF182F853481F48CE49DE188
:107250009093B9018093B80107B600FCFDCFF9996E
:10726000FECF81E180935700E89503C0843519F47F
:1072700094DF8DE00DC28C34E1F38035D1F3843797
:1072800021F484E4A2DF80E003C2813611F489E5B1
:10729000FFC18134B1F481DF182F7FDF90E0880FC8
:1072A000991FAA2797FDA095BA2F312F330F20E001
:1072B000442737FD4095542F822B932BA42BB52BBD
:1072C000B8C1803711F483E5E3C1833549F4C0E0E8
:1072D000D1E089917ADF21E0C730D207D1F7D9C157
:1072E000863521F481E371DF80E3D2C1833731F445
:1072F00087E86BDF85E969DF8EE1CAC18536B9F4BD
:10730000E0E0F0E093E085E090935700E89507B661
:1073100000FCFDCF80935700E89507B600FCFDCF39
:10732000E058FF4FA0E7E030FA0771F7A2CF8237AD
:1073300039F4E1E0F0E089E0809357008491A8C13E
:10734000863439F4E0E0F0E089E0809357008491DE
:107350009FC18E3439F4E3E0F0E089E08093570078
:10736000849196C1813539F4E2E0F0E089E08093C0
:10737000570084918DC1823631F489E526DF80E0A3
:1073800024DF80E885C1823419F0873609F0E5C032
:107390001092B9011092B80100DF082FFEDEF82E1E
:1073A000FCDE682E8554823008F071C1902F80E099
:1073B000CF2DD0E0C82BD92B10926F00173609F0D3
:1073C0004BC081E180935700E895DD24CC24C39421
:1073D0003FC0E090BD01F090BE010091BF0110914F
:1073E000C001B6E46B16D9F4ED2DF0E0EE29FF29CB
:1073F000E4918E2FEADEDD2081F082E090E0A0E0D3
:10740000B0E0E80EF91E0A1F1B1FE092BD01F092CA
:10741000BE010093BF011093C001DC2418C0D80145
:10742000C701B695A7959795879575D5CEDE82E06D
:1074300090E0A0E0B0E0E80EF91E0A1F1B1FE092EA
:10744000BD01F092BE010093BF011093C0012197CE
:10745000209709F0BECF7DC08090BD019090BE0105
:10746000A090BF01B090C00196E4691609F05DC01C
:1074700083E0F40180935700E89507B600FCFDCF48
:1074800054C0F6E46F1661F5772031F1E090BD014C
:10749000F090BE010091BF011091C0017EDED82E98
:1074A000CC24852D90E08C299D29F7010C01409278
:1074B0005700E895112482E090E0A0E0B0E0E80EEB
:1074C000F91E0A1F1B1FE092BD01F092BE0100933E
:1074D000BF011093C00102C060DE582E742423C087
:1074E000E090BD01F090BE010091BF011091C0017C
:1074F00016950795F794E79450DE682FC70113D5CA
:107500008091BD019091BE01A091BF01B091C001D9
:107510000296A11DB11D8093BD019093BE01A09361
:10752000BF01B093C001219704C05524772444249F
:107530004394209709F0A5CF96E4691641F485E0BD
:10754000F40180935700E89507B600FCFDCF8DE06D
:107550003CDE82E080936F009CC0833471F4009124
:10756000BD011091BE0119DE90E021E0F8010C018F
:1075700020935700E89511247CCE833619F5E090CE
:10758000BD01F090BE010091BF011091C00105DE68
:10759000F701E16090E021E00C0120935700E895AD
:1075A000112482E090E0A0E0B0E0E80EF91E0A1F8E
:1075B0001B1FE092BD01F092BE010093BF0110932A
:1075C000C00157CE8D3661F4E091BD01F091BE014E
:1075D00085E080935700E89507B600FCFDCF49CEC3
:1075E000823551F4E091BD01F091BE0105911491F5
:1075F000812FEBDD802F4CC0843421F5E090BD015C
:10760000F090BE010091BF011091C0011695079541
:10761000F794E794C2DD682FC70185D48091BD013E
:107620009091BE01A091BF01B091C0010296A11D31
:10763000B11D8093BD019093BE01A093BF01B09393
:10764000C00117CE843609F5E090BD01F090BE016F
:107650000091BF011091C001D801C701B695A7954F
:107660009795879558D4B1DD82E090E0A0E0B0E036
:10767000E80EF91E0A1F1B1FE092BD01F092BE0129
:107680000093BF011093C00104C08B3111F08FE350
:107690009CDD83E08093E9009091E8008091E80010
:1076A0008E778093E80095FF04C010C08EB38823C6
:1076B000C9F08091E80080FFF9CF8091E8008E77D3
:1076C0008093E80003C08EB3882361F08091E800C6
:1076D00080FFF9CF84E08093E9008091E8008B7708
:1076E0008093E800DF91CF911F910F91FF90EF9071
:1076F000DF90CF90BF90AF909F908F907F906F90D2
:107700005F904F9008959091C501892F8F778132B6
:1077100049F58091C6018032A1F0813219F5913A84
:1077200009F58091E800877F8093E8008CE091E084
:1077300067E070E027D28091E8008B778093E800C3
:107740000895913279F48091E800877F8093E80072
:107750008CE091E067E070E079D28091E8008E776C
:107760008093E800089582E061EC42E0D1D083E0AC
:1077700061E842E1CDD084E060E842E1C9C01F93F6
:10778000209100081092000844B714BE88E10FB69B
:10779000F89480936000109260000FBE80E8E0E0F3
:1077A000F0E00FB6F89480936100E09361000FBEA3
:1077B00031E035BF92E095BF3F9A209A559A809369
:1077C00061001092610047985D9A289A1092890092
:1077D0008AEF8093880090936F0083E0809381000C
:1077E000859194918F5F9F4F11F03093BC01942F3E
:1077F00041FF19C0809109012817A9F08093000862
:10780000789480911301882339F08091BA01909186
:10781000BB018F5E9240C8F3F8941092000881E09B
:10782000809313010CC090FF04C08091BC01882399
:1078300051F493FF09C080910901281729F0809124
:10784000BC01882309F04EDCD4D078941092B901A1
:107850001092B8011EEF20C0D7DC4BD38091B80145
:107860009091B90181549F4110F0109213018091C1
:10787000C1019091C20101969093C2018093C10110
:10788000292F97FF03C0512F591B252F220F28178F
:1078900010F4479801C0479A809113018823E1F6BC
:1078A0008091E00081608093E0001CDC80E090E04B
:1078B0001F910895FA01923049F0933061F09130B0
:1078C000F9F484E191E022E130E01EC086E291E02B
:1078D0002EE330E019C0882329F484E691E024E007
:1078E00030E012C0813029F488E691E02EE130E0EA
:1078F0000BC0823029F488E891E02AE230E004C02D
:1079000080E090E020E030E091838083C901089519
:107910008093E9008091EB0081608093EB001092EE
:10792000ED006093EC004093ED008091EE00881F25
:107930008827881F08958091C50188238CF403C08F
:107940008EB38823B1F08091E80082FFF9CF809157
:10795000E8008B778093E80008958EB3882349F080
:107960008091E80080FFF9CF8091E8008E778093C6
:10797000E8000895EF92FF920F931F9345D04CD0EB
:1079800008ED10E0F80180818F7780838081806826
:10799000808380818F7D808319BC1EBA1092C301C1
:1079A00080EEE82EF12CF70180818B7F8083F80137
:1079B00080818160808380E060E042E0A9DFE1EEC9
:1079C000F0E080818E7F8083E2EEF0E08081816054
:1079D0008083808188608083F70180818E7F8083AF
:1079E000F8018081806180831F910F91FF90EF905B
:1079F0000895E7EDF0E08081816080838AE482BFB2
:107A000081E08093C401B6CFE8EDF0E080818E7F05
:107A100080831092E20008951092DA001092E10043
:107A200008951F920F920FB60F9211242F933F9338
:107A30004F935F936F937F938F939F93AF93BF9376
:107A4000EF93FF938091DA0080FF1BC08091D800F4
:107A500080FF17C08091DA008E7F8093DA008091DA
:107A6000D90080FF0BC080E189BD82E189BD09B4E6
:107A700000FEFDCF81E08EBB3BD203C019BC1EBA15
:107A800037D28091E10080FF17C08091E20080FF33
:107A900013C08091E2008E7F8093E2008091E2002B
:107AA00080618093E2008091D80080628093D8004A
:107AB00019BC85E08EBB1CD28091E10084FF2CC0F4
:107AC0008091E20084FF28C080E189BD82E189BD08
:107AD00009B400FEFDCF8091D8008F7D8093D8003F
:107AE0008091E1008F7E8093E1008091E2008F7EA3
:107AF0008093E2008091E20081608093E2008091B7
:107B0000C301882331F48091E30087FD02C081E046
:107B100001C084E08EBBECD18091E10083FF21C0E5
:107B20008091E20083FF1DC08091E100877F8093F8
:107B3000E10082E08EBB1092C3018091E1008E7F54
:107B40008093E1008091E2008E7F8093E20080913B
:107B5000E20080618093E20080E060E042E0D8DEF5
:107B6000C7D1FF91EF91BF91AF919F918F917F917D
:107B70006F915F914F913F912F910F900FBE0F909A
:107B80001F9018959C014091CB015091CC01461754
:107B9000570718F4F90190E044C06115710511F020
:107BA000AB01F8CF8091E8008E778093E80040E049
:107BB00050E0F0CF8EB3882309F444C0853009F437
:107BC00043C08091E80083FF02C081E00895809166
:107BD000E80082FD31C08091E80080FF22C08091E2
:107BE000F3009091F200782F60E0292F30E0262BEF
